{
  "_format": "hh-sol-artifact-1",
  "contractName": "Escrow",
  "sourceName": "contracts/Escrow.sol",
  "abi": [
    {
      "inputs": [
        {
          "internalType": "uint16",
          "name": "_platformFee",
          "type": "uint16"
        },
        {
          "internalType": "uint8",
          "name": "_maxOpenContracts",
          "type": "uint8"
        }
      ],
      "stateMutability": "nonpayable",
      "type": "constructor"
    },
    {
      "anonymous": false,
      "inputs": [
        {
          "indexed": true,
          "internalType": "address",
          "name": "previousOwner",
          "type": "address"
        },
        {
          "indexed": true,
          "internalType": "address",
          "name": "newOwner",
          "type": "address"
        }
      ],
      "name": "OwnershipTransferred",
      "type": "event"
    },
    {
      "anonymous": false,
      "inputs": [
        {
          "indexed": true,
          "internalType": "bytes32",
          "name": "role",
          "type": "bytes32"
        },
        {
          "indexed": true,
          "internalType": "bytes32",
          "name": "previousAdminRole",
          "type": "bytes32"
        },
        {
          "indexed": true,
          "internalType": "bytes32",
          "name": "newAdminRole",
          "type": "bytes32"
        }
      ],
      "name": "RoleAdminChanged",
      "type": "event"
    },
    {
      "anonymous": false,
      "inputs": [
        {
          "indexed": true,
          "internalType": "bytes32",
          "name": "role",
          "type": "bytes32"
        },
        {
          "indexed": true,
          "internalType": "address",
          "name": "account",
          "type": "address"
        },
        {
          "indexed": true,
          "internalType": "address",
          "name": "sender",
          "type": "address"
        }
      ],
      "name": "RoleGranted",
      "type": "event"
    },
    {
      "anonymous": false,
      "inputs": [
        {
          "indexed": true,
          "internalType": "bytes32",
          "name": "role",
          "type": "bytes32"
        },
        {
          "indexed": true,
          "internalType": "address",
          "name": "account",
          "type": "address"
        },
        {
          "indexed": true,
          "internalType": "address",
          "name": "sender",
          "type": "address"
        }
      ],
      "name": "RoleRevoked",
      "type": "event"
    },
    {
      "inputs": [],
      "name": "DEFAULT_ADMIN_ROLE",
      "outputs": [
        {
          "internalType": "bytes32",
          "name": "",
          "type": "bytes32"
        }
      ],
      "stateMutability": "view",
      "type": "function"
    },
    {
      "inputs": [],
      "name": "VERIFIER_ROLE",
      "outputs": [
        {
          "internalType": "bytes32",
          "name": "",
          "type": "bytes32"
        }
      ],
      "stateMutability": "view",
      "type": "function"
    },
    {
      "inputs": [
        {
          "internalType": "address",
          "name": "",
          "type": "address"
        },
        {
          "internalType": "uint256",
          "name": "",
          "type": "uint256"
        }
      ],
      "name": "activeContracts",
      "outputs": [
        {
          "internalType": "bytes32",
          "name": "",
          "type": "bytes32"
        }
      ],
      "stateMutability": "view",
      "type": "function"
    },
    {
      "inputs": [
        {
          "internalType": "bytes32",
          "name": "contractHash",
          "type": "bytes32"
        },
        {
          "internalType": "bytes32[]",
          "name": "msgHashes",
          "type": "bytes32[]"
        },
        {
          "internalType": "uint16[]",
          "name": "msgCounts",
          "type": "uint16[]"
        }
      ],
      "name": "addPreApprovedMessages",
      "outputs": [],
      "stateMutability": "nonpayable",
      "type": "function"
    },
    {
      "inputs": [
        {
          "internalType": "uint256",
          "name": "payoutPerMessage",
          "type": "uint256"
        },
        {
          "internalType": "uint16",
          "name": "contractedMessageCount",
          "type": "uint16"
        }
      ],
      "name": "calculateRequiredPayment",
      "outputs": [
        {
          "internalType": "uint256",
          "name": "",
          "type": "uint256"
        }
      ],
      "stateMutability": "view",
      "type": "function"
    },
    {
      "inputs": [
        {
          "internalType": "uint16",
          "name": "_platformFee",
          "type": "uint16"
        }
      ],
      "name": "changePlatformFee",
      "outputs": [],
      "stateMutability": "nonpayable",
      "type": "function"
    },
    {
      "inputs": [
        {
          "internalType": "bytes32",
          "name": "contractHash",
          "type": "bytes32"
        }
      ],
      "name": "closeContract",
      "outputs": [],
      "stateMutability": "nonpayable",
      "type": "function"
    },
    {
      "inputs": [
        {
          "internalType": "bytes32",
          "name": "",
          "type": "bytes32"
        }
      ],
      "name": "contractLookup",
      "outputs": [
        {
          "internalType": "address",
          "name": "requestor",
          "type": "address"
        },
        {
          "internalType": "address",
          "name": "contractor",
          "type": "address"
        },
        {
          "internalType": "uint256",
          "name": "payoutPerMessage",
          "type": "uint256"
        },
        {
          "internalType": "uint256",
          "name": "canBeClosedAfterEpoch",
          "type": "uint256"
        },
        {
          "internalType": "uint16",
          "name": "contractedMessageCount",
          "type": "uint16"
        },
        {
          "internalType": "uint16",
          "name": "fulfilledMessageCount",
          "type": "uint16"
        },
        {
          "internalType": "uint8",
          "name": "partiesFinalized",
          "type": "uint8"
        }
      ],
      "stateMutability": "view",
      "type": "function"
    },
    {
      "inputs": [
        {
          "internalType": "bytes32",
          "name": "contractHash",
          "type": "bytes32"
        },
        {
          "internalType": "uint256",
          "name": "payoutPerMessage",
          "type": "uint256"
        },
        {
          "internalType": "uint16",
          "name": "contractedMessageCount",
          "type": "uint16"
        }
      ],
      "name": "createContract",
      "outputs": [],
      "stateMutability": "payable",
      "type": "function"
    },
    {
      "inputs": [
        {
          "internalType": "bytes32",
          "name": "contractHash",
          "type": "bytes32"
        }
      ],
      "name": "finalizeContract",
      "outputs": [],
      "stateMutability": "nonpayable",
      "type": "function"
    },
    {
      "inputs": [
        {
          "internalType": "address",
          "name": "userId",
          "type": "address"
        }
      ],
      "name": "getActiveContracts",
      "outputs": [
        {
          "internalType": "bytes32[]",
          "name": "retval",
          "type": "bytes32[]"
        }
      ],
      "stateMutability": "view",
      "type": "function"
    },
    {
      "inputs": [
        {
          "internalType": "bytes32",
          "name": "role",
          "type": "bytes32"
        }
      ],
      "name": "getRoleAdmin",
      "outputs": [
        {
          "internalType": "bytes32",
          "name": "",
          "type": "bytes32"
        }
      ],
      "stateMutability": "view",
      "type": "function"
    },
    {
      "inputs": [
        {
          "internalType": "bytes32",
          "name": "role",
          "type": "bytes32"
        },
        {
          "internalType": "address",
          "name": "account",
          "type": "address"
        }
      ],
      "name": "grantRole",
      "outputs": [],
      "stateMutability": "nonpayable",
      "type": "function"
    },
    {
      "inputs": [
        {
          "internalType": "bytes32",
          "name": "role",
          "type": "bytes32"
        },
        {
          "internalType": "address",
          "name": "account",
          "type": "address"
        }
      ],
      "name": "hasRole",
      "outputs": [
        {
          "internalType": "bool",
          "name": "",
          "type": "bool"
        }
      ],
      "stateMutability": "view",
      "type": "function"
    },
    {
      "inputs": [],
      "name": "owner",
      "outputs": [
        {
          "internalType": "address",
          "name": "",
          "type": "address"
        }
      ],
      "stateMutability": "view",
      "type": "function"
    },
    {
      "inputs": [],
      "name": "platformFee",
      "outputs": [
        {
          "internalType": "uint16",
          "name": "",
          "type": "uint16"
        }
      ],
      "stateMutability": "view",
      "type": "function"
    },
    {
      "inputs": [],
      "name": "renounceOwnership",
      "outputs": [],
      "stateMutability": "nonpayable",
      "type": "function"
    },
    {
      "inputs": [
        {
          "internalType": "bytes32",
          "name": "role",
          "type": "bytes32"
        },
        {
          "internalType": "address",
          "name": "account",
          "type": "address"
        }
      ],
      "name": "renounceRole",
      "outputs": [],
      "stateMutability": "nonpayable",
      "type": "function"
    },
    {
      "inputs": [
        {
          "internalType": "bytes32",
          "name": "role",
          "type": "bytes32"
        },
        {
          "internalType": "address",
          "name": "account",
          "type": "address"
        }
      ],
      "name": "revokeRole",
      "outputs": [],
      "stateMutability": "nonpayable",
      "type": "function"
    },
    {
      "inputs": [
        {
          "internalType": "bytes32",
          "name": "contractHash",
          "type": "bytes32"
        },
        {
          "internalType": "address",
          "name": "contractor",
          "type": "address"
        }
      ],
      "name": "setContractor",
      "outputs": [],
      "stateMutability": "nonpayable",
      "type": "function"
    },
    {
      "inputs": [
        {
          "internalType": "address",
          "name": "verifier",
          "type": "address"
        }
      ],
      "name": "setVerifier",
      "outputs": [],
      "stateMutability": "nonpayable",
      "type": "function"
    },
    {
      "inputs": [
        {
          "internalType": "bytes4",
          "name": "interfaceId",
          "type": "bytes4"
        }
      ],
      "name": "supportsInterface",
      "outputs": [
        {
          "internalType": "bool",
          "name": "",
          "type": "bool"
        }
      ],
      "stateMutability": "view",
      "type": "function"
    },
    {
      "inputs": [
        {
          "internalType": "address",
          "name": "newOwner",
          "type": "address"
        }
      ],
      "name": "transferOwnership",
      "outputs": [],
      "stateMutability": "nonpayable",
      "type": "function"
    },
    {
      "inputs": [
        {
          "internalType": "bytes32",
          "name": "contractHash",
          "type": "bytes32"
        },
        {
          "internalType": "bytes32[]",
          "name": "msgHashes",
          "type": "bytes32[]"
        },
        {
          "internalType": "uint16[]",
          "name": "msgCounts",
          "type": "uint16[]"
        }
      ],
      "name": "verifyMessages",
      "outputs": [],
      "stateMutability": "nonpayable",
      "type": "function"
    },
    {
      "inputs": [
        {
          "internalType": "address",
          "name": "",
          "type": "address"
        }
      ],
      "name": "withdrawalAmount",
      "outputs": [
        {
          "internalType": "uint256",
          "name": "",
          "type": "uint256"
        }
      ],
      "stateMutability": "view",
      "type": "function"
    }
  ],
  "bytecode": "0x60806040523480156200001157600080fd5b50604051620039cb380380620039cb8339818101604052810190620000379190620001e5565b620000576200004b6200009760201b60201c565b6200009f60201b60201c565b81600660006101000a81548161ffff021916908361ffff16021790555080600660026101000a81548160ff021916908360ff16021790555050506200022c565b600033905090565b60008060009054906101000a900473ffffffffffffffffffffffffffffffffffffffff169050816000806101000a81548173ffffffffffffffffffffffffffffffffffffffff021916908373ffffffffffffffffffffffffffffffffffffffff1602179055508173ffffffffffffffffffffffffffffffffffffffff168173ffffffffffffffffffffffffffffffffffffffff167f8be0079c531659141344cd1fd0a4f28419497f9722a3daafe3b4186f6b6457e060405160405180910390a35050565b600080fd5b600061ffff82169050919050565b620001818162000168565b81146200018d57600080fd5b50565b600081519050620001a18162000176565b92915050565b600060ff82169050919050565b620001bf81620001a7565b8114620001cb57600080fd5b50565b600081519050620001df81620001b4565b92915050565b60008060408385031215620001ff57620001fe62000163565b5b60006200020f8582860162000190565b92505060206200022285828601620001ce565b9150509250929050565b61378f806200023c6000396000f3fe6080604052600436106101665760003560e01c806391d14854116100d1578063d547741f1161008a578063dfcc8dcf11610064578063dfcc8dcf14610555578063e3fc2bb61461057e578063e7705db6146105a7578063f2fde38b146105d257610166565b8063d547741f146104c6578063d67f9c39146104ef578063daa91f2e1461051857610166565b806391d1485414610392578063a217fddf146103cf578063a3f282ef146103fa578063b42c078214610423578063b978e9981461044c578063ced3ee641461048957610166565b8063403eac8611610123578063403eac86146102a55780635437988d146102c1578063715018a6146102ea5780637cca50781461030157806386c86f271461032a5780638da5cb5b1461036757610166565b806301ffc9a71461016b578063248a9ca3146101a857806325cc4b94146101e557806326232a2e146102285780632f2ff15d1461025357806336568abe1461027c575b600080fd5b34801561017757600080fd5b50610192600480360381019061018d9190612434565b6105fb565b60405161019f919061247c565b60405180910390f35b3480156101b457600080fd5b506101cf60048036038101906101ca91906124cd565b610675565b6040516101dc9190612509565b60405180910390f35b3480156101f157600080fd5b5061020c600480360381019061020791906124cd565b610695565b60405161021f97969594939291906125b7565b60405180910390f35b34801561023457600080fd5b5061023d610740565b60405161024a9190612626565b60405180910390f35b34801561025f57600080fd5b5061027a6004803603810190610275919061266d565b610754565b005b34801561028857600080fd5b506102a3600480360381019061029e919061266d565b610775565b005b6102bf60048036038101906102ba9190612705565b6107f8565b005b3480156102cd57600080fd5b506102e860048036038101906102e39190612758565b610b77565b005b3480156102f657600080fd5b506102ff610bac565b005b34801561030d57600080fd5b50610328600480360381019061032391906129a1565b610bc0565b005b34801561033657600080fd5b50610351600480360381019061034c9190612a2c565b610cc2565b60405161035e9190612509565b60405180910390f35b34801561037357600080fd5b5061037c610cf3565b6040516103899190612a6c565b60405180910390f35b34801561039e57600080fd5b506103b960048036038101906103b4919061266d565b610d1c565b6040516103c6919061247c565b60405180910390f35b3480156103db57600080fd5b506103e4610d87565b6040516103f19190612509565b60405180910390f35b34801561040657600080fd5b50610421600480360381019061041c919061266d565b610d8e565b005b34801561042f57600080fd5b5061044a60048036038101906104459190612a87565b610f84565b005b34801561045857600080fd5b50610473600480360381019061046e9190612758565b610fac565b6040516104809190612b72565b60405180910390f35b34801561049557600080fd5b506104b060048036038101906104ab9190612b94565b611043565b6040516104bd9190612bd4565b60405180910390f35b3480156104d257600080fd5b506104ed60048036038101906104e8919061266d565b61109f565b005b3480156104fb57600080fd5b50610516600480360381019061051191906129a1565b6110c0565b005b34801561052457600080fd5b5061053f600480360381019061053a9190612758565b61130f565b60405161054c9190612bd4565b60405180910390f35b34801561056157600080fd5b5061057c600480360381019061057791906124cd565b611327565b005b34801561058a57600080fd5b506105a560048036038101906105a091906124cd565b611601565b005b3480156105b357600080fd5b506105bc6116cf565b6040516105c99190612509565b60405180910390f35b3480156105de57600080fd5b506105f960048036038101906105f49190612758565b6116f3565b005b60007f7965db0b000000000000000000000000000000000000000000000000000000007bffffffffffffffffffffffffffffffffffffffffffffffffffffffff1916827bffffffffffffffffffffffffffffffffffffffffffffffffffffffff1916148061066e575061066d82611776565b5b9050919050565b600060016000838152602001908152602001600020600101549050919050565b60036020528060005260406000206000915090508060000160009054906101000a900473ffffffffffffffffffffffffffffffffffffffff16908060010160009054906101000a900473ffffffffffffffffffffffffffffffffffffffff16908060020154908060030154908060040160009054906101000a900461ffff16908060040160029054906101000a900461ffff16908060040160049054906101000a900460ff16905087565b600660009054906101000a900461ffff1681565b61075d82610675565b610766816117e0565b61077083836117f4565b505050565b61077d6118d4565b73ffffffffffffffffffffffffffffffffffffffff168173ffffffffffffffffffffffffffffffffffffffff16146107ea576040517f08c379a00000000000000000000000000000000000000000000000000000000081526004016107e190612c72565b60405180910390fd5b6107f482826118dc565b5050565b600073ffffffffffffffffffffffffffffffffffffffff166003600085815260200190815260200160002060000160009054906101000a900473ffffffffffffffffffffffffffffffffffffffff1673ffffffffffffffffffffffffffffffffffffffff161461089d576040517f08c379a000000000000000000000000000000000000000000000000000000000815260040161089490612d04565b60405180910390fd5b600660029054906101000a900460ff1660ff16600260003373ffffffffffffffffffffffffffffffffffffffff1673ffffffffffffffffffffffffffffffffffffffff1681526020019081526020016000208054905010610933576040517f08c379a000000000000000000000000000000000000000000000000000000000815260040161092a90612d96565b60405180910390fd5b61093d8282611043565b34101561097f576040517f08c379a000000000000000000000000000000000000000000000000000000000815260040161097690612e28565b60405180910390fd5b600260003373ffffffffffffffffffffffffffffffffffffffff1673ffffffffffffffffffffffffffffffffffffffff1681526020019081526020016000208390806001815401808255809150506001900390600052602060002001600090919091909150556040518060e001604052803373ffffffffffffffffffffffffffffffffffffffff168152602001600073ffffffffffffffffffffffffffffffffffffffff168152602001838152602001600081526020018261ffff168152602001600061ffff168152602001600060ff168152506003600085815260200190815260200160002060008201518160000160006101000a81548173ffffffffffffffffffffffffffffffffffffffff021916908373ffffffffffffffffffffffffffffffffffffffff16021790555060208201518160010160006101000a81548173ffffffffffffffffffffffffffffffffffffffff021916908373ffffffffffffffffffffffffffffffffffffffff160217905550604082015181600201556060820151816003015560808201518160040160006101000a81548161ffff021916908361ffff16021790555060a08201518160040160026101000a81548161ffff021916908361ffff16021790555060c08201518160040160046101000a81548160ff021916908360ff160217905550905050505050565b610b7f6119be565b610ba97fa48c898f5241be426b79d4b5a3c206f9c9a06576e1b72c338c3ec849771d5686826117f4565b50565b610bb46119be565b610bbe6000611a3c565b565b610bc983611b00565b508051825114610c0e576040517f08c379a0000000000000000000000000000000000000000000000000000000008152600401610c0590612eba565b60405180910390fd5b60005b8251811015610cbc57818181518110610c2d57610c2c612eda565b5b6020026020010151600560008681526020019081526020016000206000858481518110610c5d57610c5c612eda565b5b6020026020010151815260200190815260200160002060008282829054906101000a900461ffff16610c8f9190612f38565b92506101000a81548161ffff021916908361ffff1602179055508080610cb490612f6e565b915050610c11565b50505050565b60026020528160005260406000208181548110610cde57600080fd5b90600052602060002001600091509150505481565b60008060009054906101000a900473ffffffffffffffffffffffffffffffffffffffff16905090565b60006001600084815260200190815260200160002060000160008373ffffffffffffffffffffffffffffffffffffffff1673ffffffffffffffffffffffffffffffffffffffff16815260200190815260200160002060009054906101000a900460ff16905092915050565b6000801b81565b600073ffffffffffffffffffffffffffffffffffffffff168173ffffffffffffffffffffffffffffffffffffffff1614158015610df757503373ffffffffffffffffffffffffffffffffffffffff168173ffffffffffffffffffffffffffffffffffffffff1614155b610e36576040517f08c379a0000000000000000000000000000000000000000000000000000000008152600401610e2d90613028565b60405180910390fd5b6000610e4183611b00565b9050600073ffffffffffffffffffffffffffffffffffffffff168160010160009054906101000a900473ffffffffffffffffffffffffffffffffffffffff1673ffffffffffffffffffffffffffffffffffffffff1614610ed6576040517f08c379a0000000000000000000000000000000000000000000000000000000008152600401610ecd906130ba565b60405180910390fd5b600260008373ffffffffffffffffffffffffffffffffffffffff1673ffffffffffffffffffffffffffffffffffffffff168152602001908152602001600020839080600181540180825580915050600190039060005260206000200160009091909190915055818160010160006101000a81548173ffffffffffffffffffffffffffffffffffffffff021916908373ffffffffffffffffffffffffffffffffffffffff160217905550505050565b610f8c6119be565b80600660006101000a81548161ffff021916908361ffff16021790555050565b6060600260008373ffffffffffffffffffffffffffffffffffffffff1673ffffffffffffffffffffffffffffffffffffffff16815260200190815260200160002080548060200260200160405190810160405280929190818152602001828054801561103757602002820191906000526020600020905b815481526020019060010190808311611023575b50505050509050919050565b6000808261ffff168461105691906130da565b90506000612710600660009054906101000a900461ffff1661ffff168361107d91906130da565b611087919061314b565b90508082611095919061317c565b9250505092915050565b6110a882610675565b6110b1816117e0565b6110bb83836118dc565b505050565b7fa48c898f5241be426b79d4b5a3c206f9c9a06576e1b72c338c3ec849771d56866110ea816117e0565b60006003600086815260200190815260200160002090508251845114611145576040517f08c379a000000000000000000000000000000000000000000000000000000000815260040161113c90612eba565b60405180910390fd5b60005b84518110156113075760008260040160029054906101000a900461ffff168360040160009054906101000a900461ffff1661118391906131b0565b905060006005600089815260200190815260200160002060008885815181106111af576111ae612eda565b5b6020026020010151815260200190815260200160002060009054906101000a900461ffff16905060006112056111e58385611bae565b8886815181106111f8576111f7612eda565b5b6020026020010151611bae565b9050808560040160028282829054906101000a900461ffff166112289190612f38565b92506101000a81548161ffff021916908361ffff1602179055508460040160009054906101000a900461ffff1661ffff168560040160029054906101000a900461ffff1661ffff161461127b578061127d565b815b600560008b815260200190815260200160002060008a87815181106112a5576112a4612eda565b5b6020026020010151815260200190815260200160002060008282829054906101000a900461ffff166112d791906131b0565b92506101000a81548161ffff021916908361ffff16021790555050505080806112ff90612f6e565b915050611148565b505050505050565b60046020528060005260406000206000915090505481565b600073ffffffffffffffffffffffffffffffffffffffff166003600083815260200190815260200160002060000160009054906101000a900473ffffffffffffffffffffffffffffffffffffffff1673ffffffffffffffffffffffffffffffffffffffff16036113cc576040517f08c379a00000000000000000000000000000000000000000000000000000000081526004016113c390613258565b60405180910390fd5b60006113d782611bd0565b90506113e281611cd8565b6113ec57506115fe565b80600201548160040160029054906101000a900461ffff168260040160009054906101000a900461ffff1661142191906131b0565b61ffff1661142f91906130da565b600460008360000160009054906101000a900473ffffffffffffffffffffffffffffffffffffffff1673ffffffffffffffffffffffffffffffffffffffff1673ffffffffffffffffffffffffffffffffffffffff16815260200190815260200160002060008282546114a1919061317c565b92505081905550600073ffffffffffffffffffffffffffffffffffffffff168160010160009054906101000a900473ffffffffffffffffffffffffffffffffffffffff1673ffffffffffffffffffffffffffffffffffffffff16146115ce5780600201548160040160029054906101000a900461ffff1661ffff1661152691906130da565b600460008360010160009054906101000a900473ffffffffffffffffffffffffffffffffffffffff1673ffffffffffffffffffffffffffffffffffffffff1673ffffffffffffffffffffffffffffffffffffffff1681526020019081526020016000206000828254611598919061317c565b925050819055506115cd828260010160009054906101000a900473ffffffffffffffffffffffffffffffffffffffff16611e34565b5b6115fc828260000160009054906101000a900473ffffffffffffffffffffffffffffffffffffffff16611e34565b505b50565b600061160c82611bd0565b90508060000160009054906101000a900473ffffffffffffffffffffffffffffffffffffffff1673ffffffffffffffffffffffffffffffffffffffff163373ffffffffffffffffffffffffffffffffffffffff160361169a5760018160040160048282829054906101000a900460ff161792506101000a81548160ff021916908360ff1602179055506116cb565b60028160040160048282829054906101000a900460ff161792506101000a81548160ff021916908360ff1602179055505b5050565b7fa48c898f5241be426b79d4b5a3c206f9c9a06576e1b72c338c3ec849771d568681565b6116fb6119be565b600073ffffffffffffffffffffffffffffffffffffffff168173ffffffffffffffffffffffffffffffffffffffff160361176a576040517f08c379a0000000000000000000000000000000000000000000000000000000008152600401611761906132ea565b60405180910390fd5b61177381611a3c565b50565b60007f01ffc9a7000000000000000000000000000000000000000000000000000000007bffffffffffffffffffffffffffffffffffffffffffffffffffffffff1916827bffffffffffffffffffffffffffffffffffffffffffffffffffffffff1916149050919050565b6117f1816117ec6118d4565b612030565b50565b6117fe8282610d1c565b6118d057600180600084815260200190815260200160002060000160008373ffffffffffffffffffffffffffffffffffffffff1673ffffffffffffffffffffffffffffffffffffffff16815260200190815260200160002060006101000a81548160ff0219169083151502179055506118756118d4565b73ffffffffffffffffffffffffffffffffffffffff168173ffffffffffffffffffffffffffffffffffffffff16837f2f8788117e7eff1d82e926ec794901d17c78024a50270940304540a733656f0d60405160405180910390a45b5050565b600033905090565b6118e68282610d1c565b156119ba5760006001600084815260200190815260200160002060000160008373ffffffffffffffffffffffffffffffffffffffff1673ffffffffffffffffffffffffffffffffffffffff16815260200190815260200160002060006101000a81548160ff02191690831515021790555061195f6118d4565b73ffffffffffffffffffffffffffffffffffffffff168173ffffffffffffffffffffffffffffffffffffffff16837ff6391f5c32d9c69d2a47ea670b442974b53935d1edc7fd64eb21e047a839171b60405160405180910390a45b5050565b6119c66118d4565b73ffffffffffffffffffffffffffffffffffffffff166119e4610cf3565b73ffffffffffffffffffffffffffffffffffffffff1614611a3a576040517f08c379a0000000000000000000000000000000000000000000000000000000008152600401611a3190613356565b60405180910390fd5b565b60008060009054906101000a900473ffffffffffffffffffffffffffffffffffffffff169050816000806101000a81548173ffffffffffffffffffffffffffffffffffffffff021916908373ffffffffffffffffffffffffffffffffffffffff1602179055508173ffffffffffffffffffffffffffffffffffffffff168173ffffffffffffffffffffffffffffffffffffffff167f8be0079c531659141344cd1fd0a4f28419497f9722a3daafe3b4186f6b6457e060405160405180910390a35050565b60006003600083815260200190815260200160002090508060000160009054906101000a900473ffffffffffffffffffffffffffffffffffffffff1673ffffffffffffffffffffffffffffffffffffffff163373ffffffffffffffffffffffffffffffffffffffff1614611ba9576040517f08c379a0000000000000000000000000000000000000000000000000000000008152600401611ba0906133e8565b60405180910390fd5b919050565b60008161ffff168361ffff161115611bc65781611bc8565b825b905092915050565b60006003600083815260200190815260200160002090508060000160009054906101000a900473ffffffffffffffffffffffffffffffffffffffff1673ffffffffffffffffffffffffffffffffffffffff163373ffffffffffffffffffffffffffffffffffffffff161480611c9457508060010160009054906101000a900473ffffffffffffffffffffffffffffffffffffffff1673ffffffffffffffffffffffffffffffffffffffff163373ffffffffffffffffffffffffffffffffffffffff16145b611cd3576040517f08c379a0000000000000000000000000000000000000000000000000000000008152600401611cca9061347a565b60405180910390fd5b919050565b6000808260010160009054906101000a900473ffffffffffffffffffffffffffffffffffffffff16905060008173ffffffffffffffffffffffffffffffffffffffff163373ffffffffffffffffffffffffffffffffffffffff1614905060008460030154905060038560040160049054906101000a900460ff1660ff161480611d8d5750600073ffffffffffffffffffffffffffffffffffffffff168373ffffffffffffffffffffffffffffffffffffffff16145b80611db75750818015611db657506001808660040160049054906101000a900460ff161660ff16145b5b80611de2575081158015611de157506002808660040160049054906101000a900460ff161660ff16145b5b80611df95750600081118015611df85750428111155b5b15611e0a5760019350505050611e2f565b62093a8063ffffffff1642611e1f919061317c565b8560030181905550600093505050505b919050565b6000600260008373ffffffffffffffffffffffffffffffffffffffff1673ffffffffffffffffffffffffffffffffffffffff1681526020019081526020016000209050600080611e8483866120b5565b915091508115611f1f57600060018480549050611ea1919061349a565b90508060ff168260ff1614611ef657838160ff1681548110611ec657611ec5612eda565b5b9060005260206000200154848360ff1681548110611ee757611ee6612eda565b5b90600052602060002001819055505b83805480611f0757611f066134ce565b5b60019003818190600052602060002001600090559055505b6000838054905003611f7757600260008573ffffffffffffffffffffffffffffffffffffffff1673ffffffffffffffffffffffffffffffffffffffff1681526020019081526020016000206000611f76919061238a565b5b60036000868152602001908152602001600020600080820160006101000a81549073ffffffffffffffffffffffffffffffffffffffff02191690556001820160006101000a81549073ffffffffffffffffffffffffffffffffffffffff0219169055600282016000905560038201600090556004820160006101000a81549061ffff02191690556004820160026101000a81549061ffff02191690556004820160046101000a81549060ff021916905550505050505050565b61203a8282610d1c565b6120b15761204781612121565b6120558360001c602061214e565b604051602001612066929190613606565b6040516020818303038152906040526040517f08c379a00000000000000000000000000000000000000000000000000000000081526004016120a89190613679565b60405180910390fd5b5050565b60008060005b84805490508160ff1610156121115783858260ff16815481106120e1576120e0612eda565b5b9060005260206000200154036120fe57600181925092505061211a565b80806121099061369b565b9150506120bb565b50600080915091505b9250929050565b60606121478273ffffffffffffffffffffffffffffffffffffffff16601460ff1661214e565b9050919050565b60606000600283600261216191906130da565b61216b919061317c565b67ffffffffffffffff8111156121845761218361279b565b5b6040519080825280601f01601f1916602001820160405280156121b65781602001600182028036833780820191505090505b5090507f3000000000000000000000000000000000000000000000000000000000000000816000815181106121ee576121ed612eda565b5b60200101907effffffffffffffffffffffffffffffffffffffffffffffffffffffffffffff1916908160001a9053507f78000000000000000000000000000000000000000000000000000000000000008160018151811061225257612251612eda565b5b60200101907effffffffffffffffffffffffffffffffffffffffffffffffffffffffffffff1916908160001a9053506000600184600261229291906130da565b61229c919061317c565b90505b600181111561233c577f3031323334353637383961626364656600000000000000000000000000000000600f8616601081106122de576122dd612eda565b5b1a60f81b8282815181106122f5576122f4612eda565b5b60200101907effffffffffffffffffffffffffffffffffffffffffffffffffffffffffffff1916908160001a905350600485901c945080612335906136c4565b905061229f565b5060008414612380576040517f08c379a000000000000000000000000000000000000000000000000000000000815260040161237790613739565b60405180910390fd5b8091505092915050565b50805460008255906000526020600020908101906123a891906123ab565b50565b5b808211156123c45760008160009055506001016123ac565b5090565b6000604051905090565b600080fd5b600080fd5b60007fffffffff0000000000000000000000000000000000000000000000000000000082169050919050565b612411816123dc565b811461241c57600080fd5b50565b60008135905061242e81612408565b92915050565b60006020828403121561244a576124496123d2565b5b60006124588482850161241f565b91505092915050565b60008115159050919050565b61247681612461565b82525050565b6000602082019050612491600083018461246d565b92915050565b6000819050919050565b6124aa81612497565b81146124b557600080fd5b50565b6000813590506124c7816124a1565b92915050565b6000602082840312156124e3576124e26123d2565b5b60006124f1848285016124b8565b91505092915050565b61250381612497565b82525050565b600060208201905061251e60008301846124fa565b92915050565b600073ffffffffffffffffffffffffffffffffffffffff82169050919050565b600061254f82612524565b9050919050565b61255f81612544565b82525050565b6000819050919050565b61257881612565565b82525050565b600061ffff82169050919050565b6125958161257e565b82525050565b600060ff82169050919050565b6125b18161259b565b82525050565b600060e0820190506125cc600083018a612556565b6125d96020830189612556565b6125e6604083018861256f565b6125f3606083018761256f565b612600608083018661258c565b61260d60a083018561258c565b61261a60c08301846125a8565b98975050505050505050565b600060208201905061263b600083018461258c565b92915050565b61264a81612544565b811461265557600080fd5b50565b60008135905061266781612641565b92915050565b60008060408385031215612684576126836123d2565b5b6000612692858286016124b8565b92505060206126a385828601612658565b9150509250929050565b6126b681612565565b81146126c157600080fd5b50565b6000813590506126d3816126ad565b92915050565b6126e28161257e565b81146126ed57600080fd5b50565b6000813590506126ff816126d9565b92915050565b60008060006060848603121561271e5761271d6123d2565b5b600061272c868287016124b8565b935050602061273d868287016126c4565b925050604061274e868287016126f0565b9150509250925092565b60006020828403121561276e5761276d6123d2565b5b600061277c84828501612658565b91505092915050565b600080fd5b6000601f19601f8301169050919050565b7f4e487b7100000000000000000000000000000000000000000000000000000000600052604160045260246000fd5b6127d38261278a565b810181811067ffffffffffffffff821117156127f2576127f161279b565b5b80604052505050565b60006128056123c8565b905061281182826127ca565b919050565b600067ffffffffffffffff8211156128315761283061279b565b5b602082029050602081019050919050565b600080fd5b600061285a61285584612816565b6127fb565b9050808382526020820190506020840283018581111561287d5761287c612842565b5b835b818110156128a6578061289288826124b8565b84526020840193505060208101905061287f565b5050509392505050565b600082601f8301126128c5576128c4612785565b5b81356128d5848260208601612847565b91505092915050565b600067ffffffffffffffff8211156128f9576128f861279b565b5b602082029050602081019050919050565b600061291d612918846128de565b6127fb565b905080838252602082019050602084028301858111156129405761293f612842565b5b835b81811015612969578061295588826126f0565b845260208401935050602081019050612942565b5050509392505050565b600082601f83011261298857612987612785565b5b813561299884826020860161290a565b91505092915050565b6000806000606084860312156129ba576129b96123d2565b5b60006129c8868287016124b8565b935050602084013567ffffffffffffffff8111156129e9576129e86123d7565b5b6129f5868287016128b0565b925050604084013567ffffffffffffffff811115612a1657612a156123d7565b5b612a2286828701612973565b9150509250925092565b60008060408385031215612a4357612a426123d2565b5b6000612a5185828601612658565b9250506020612a62858286016126c4565b9150509250929050565b6000602082019050612a816000830184612556565b92915050565b600060208284031215612a9d57612a9c6123d2565b5b6000612aab848285016126f0565b91505092915050565b600081519050919050565b600082825260208201905092915050565b6000819050602082019050919050565b612ae981612497565b82525050565b6000612afb8383612ae0565b60208301905092915050565b6000602082019050919050565b6000612b1f82612ab4565b612b298185612abf565b9350612b3483612ad0565b8060005b83811015612b65578151612b4c8882612aef565b9750612b5783612b07565b925050600181019050612b38565b5085935050505092915050565b60006020820190508181036000830152612b8c8184612b14565b905092915050565b60008060408385031215612bab57612baa6123d2565b5b6000612bb9858286016126c4565b9250506020612bca858286016126f0565b9150509250929050565b6000602082019050612be9600083018461256f565b92915050565b600082825260208201905092915050565b7f416363657373436f6e74726f6c3a2063616e206f6e6c792072656e6f756e636560008201527f20726f6c657320666f722073656c660000000000000000000000000000000000602082015250565b6000612c5c602f83612bef565b9150612c6782612c00565b604082019050919050565b60006020820190508181036000830152612c8b81612c4f565b9050919050565b7f4120636f6e747261637420776974682074686520737570706c6965642048617360008201527f6820616c72656164792065786973747321000000000000000000000000000000602082015250565b6000612cee603183612bef565b9150612cf982612c92565b604082019050919050565b60006020820190508181036000830152612d1d81612ce1565b9050919050565b7f546f6f206d616e792061637469766520636f6e74726163747320666f7220526560008201527f71756573746f7221000000000000000000000000000000000000000000000000602082015250565b6000612d80602883612bef565b9150612d8b82612d24565b604082019050919050565b60006020820190508181036000830152612daf81612d73565b9050919050565b7f5061796d656e7420696e73756666696369656e7420746f20636f76657220636f60008201527f6e747261637420636f7374732100000000000000000000000000000000000000602082015250565b6000612e12602d83612bef565b9150612e1d82612db6565b604082019050919050565b60006020820190508181036000830152612e4181612e05565b9050919050565b7f5468652074776f20617272617973206e65656420746f2062652074686520736160008201527f6d65206c656e6774680000000000000000000000000000000000000000000000602082015250565b6000612ea4602983612bef565b9150612eaf82612e48565b604082019050919050565b60006020820190508181036000830152612ed381612e97565b9050919050565b7f4e487b7100000000000000000000000000000000000000000000000000000000600052603260045260246000fd5b7f4e487b7100000000000000000000000000000000000000000000000000000000600052601160045260246000fd5b6000612f438261257e565b9150612f4e8361257e565b9250828201905061ffff811115612f6857612f67612f09565b5b92915050565b6000612f7982612565565b91507fffffffffffffffffffffffffffffffffffffffffffffffffffffffffffffffff8203612fab57612faa612f09565b5b600182019050919050565b7f496e76616c696420636f6e74726163746f72206164647265737320737065636960008201527f6669656400000000000000000000000000000000000000000000000000000000602082015250565b6000613012602483612bef565b915061301d82612fb6565b604082019050919050565b6000602082019050818103600083015261304181613005565b9050919050565b7f43616e6e6f742061737369676e206120636f6e7472616374206d756c7469706c60008201527f652074696d657321000000000000000000000000000000000000000000000000602082015250565b60006130a4602883612bef565b91506130af82613048565b604082019050919050565b600060208201905081810360008301526130d381613097565b9050919050565b60006130e582612565565b91506130f083612565565b92508282026130fe81612565565b9150828204841483151761311557613114612f09565b5b5092915050565b7f4e487b7100000000000000000000000000000000000000000000000000000000600052601260045260246000fd5b600061315682612565565b915061316183612565565b9250826131715761317061311c565b5b828204905092915050565b600061318782612565565b915061319283612565565b92508282019050808211156131aa576131a9612f09565b5b92915050565b60006131bb8261257e565b91506131c68361257e565b9250828203905061ffff8111156131e0576131df612f09565b5b92915050565b7f54686520636f6e74726163742072657175657374656420646f65736e2774206560008201527f7869737400000000000000000000000000000000000000000000000000000000602082015250565b6000613242602483612bef565b915061324d826131e6565b604082019050919050565b6000602082019050818103600083015261327181613235565b9050919050565b7f4f776e61626c653a206e6577206f776e657220697320746865207a65726f206160008201527f6464726573730000000000000000000000000000000000000000000000000000602082015250565b60006132d4602683612bef565b91506132df82613278565b604082019050919050565b60006020820190508181036000830152613303816132c7565b9050919050565b7f4f776e61626c653a2063616c6c6572206973206e6f7420746865206f776e6572600082015250565b6000613340602083612bef565b915061334b8261330a565b602082019050919050565b6000602082019050818103600083015261336f81613333565b9050919050565b7f4f6e6c792074686520636f6e7472616374277320726571756573746f72206d6160008201527f792072756e2074686973206f7065726174696f6e210000000000000000000000602082015250565b60006133d2603583612bef565b91506133dd82613376565b604082019050919050565b60006020820190508181036000830152613401816133c5565b9050919050565b7f5468652073656e646572206973206e6f7420696e766f6c76656420696e20746860008201527f697320636f6e7472616374210000000000000000000000000000000000000000602082015250565b6000613464602c83612bef565b915061346f82613408565b604082019050919050565b6000602082019050818103600083015261349381613457565b9050919050565b60006134a582612565565b91506134b083612565565b92508282039050818111156134c8576134c7612f09565b5b92915050565b7f4e487b7100000000000000000000000000000000000000000000000000000000600052603160045260246000fd5b600081905092915050565b7f416363657373436f6e74726f6c3a206163636f756e7420000000000000000000600082015250565b600061353e6017836134fd565b915061354982613508565b601782019050919050565b600081519050919050565b60005b8381101561357d578082015181840152602081019050613562565b60008484015250505050565b600061359482613554565b61359e81856134fd565b93506135ae81856020860161355f565b80840191505092915050565b7f206973206d697373696e6720726f6c6520000000000000000000000000000000600082015250565b60006135f06011836134fd565b91506135fb826135ba565b601182019050919050565b600061361182613531565b915061361d8285613589565b9150613628826135e3565b91506136348284613589565b91508190509392505050565b600061364b82613554565b6136558185612bef565b935061366581856020860161355f565b61366e8161278a565b840191505092915050565b600060208201905081810360008301526136938184613640565b905092915050565b60006136a68261259b565b915060ff82036136b9576136b8612f09565b5b600182019050919050565b60006136cf82612565565b9150600082036136e2576136e1612f09565b5b600182039050919050565b7f537472696e67733a20686578206c656e67746820696e73756666696369656e74600082015250565b6000613723602083612bef565b915061372e826136ed565b602082019050919050565b6000602082019050818103600083015261375281613716565b905091905056fea26469706673582212206ecaff3487291e165021e84598b1384352f1b81a8eee9220469acf4e36273b5b64736f6c63430008110033",
  "linkReferences": {},
  "deployedLinkReferences": {}
}